:100000000C942A000C9447000C9447000C94470071
:100010000C9447000C9447000C9447000C94470044
:100020000C9447000C9447000C9447000C94470034
:100030000C9447000C9447000C9447000C94470024
:100040000C9447000C9447000C9447000C94470014
:100050000C94470011241FBECFE5D4E0DEBFCDBF16
:1000600010E0A0E6B0E0E2E7FEE002C005900D92ED
:10007000AC39B107D9F710E0ACE9B0E001C01D928E
:10008000A63AB107E1F70E9467020C9437070C9477
:100090000000DF93CF9300D000D0CDB7DEB7EAE306
:1000A000F0E08FEF8083E7E3F0E08FEF8083E4E31D
:1000B000F0E08FEF8083E1E3F0E08FEF8083EBE30C
:1000C000F0E08081EBE3F0E01082E8E3F0E0808193
:1000D000E8E3F0E01082E5E3F0E08081E5E3F0E0C2
:1000E0001082E2E3F0E08081E2E3F0E010820F9022
:1000F0000F900F900F90CF91DF910895DF93CF93E2
:1001000000D000D000D0CDB7DEB78C837E836D8366
:100110008C81803298F58C818695869586958A8328
:100120008C81877089838A81882F90E0880F991F3E
:10013000FC01ED56FF4F0190F081E02D8081482FAA
:1001400050E08981282F30E081E090E002C0880FE4
:10015000991F2A95E2F79A01282339238981882F4C
:1001600090E0A90102C0559547958A95E2F7CA012A
:10017000ED81FE81808381E08B8301C01B828B81B6
:1001800026960FB6F894DEBF0FBECDBFCF91DF919C
:100190000895DF93CF9300D000D00F92CDB7DEB794
:1001A0008C836D838C81803208F058C08C81869559
:1001B000869586958A838C81877089838D81882333
:1001C00031F58A81882F90E0880F991FFC01ED5747
:1001D000FF4FA081B1818A81882F90E0880F991FFD
:1001E000FC01ED57FF4F0190F081E02D8081482FF9
:1001F0008981282F30E081E090E0022E02C0880F34
:10020000991F0A94E2F7809584238C9324C08A81F5
:10021000882F90E0880F991FFC01ED57FF4FA081B8
:10022000B1818A81882F90E0880F991FFC01ED57DA
:10023000FF4F0190F081E02D8081482F8981282F88
:1002400030E081E090E0022E02C0880F991F0A94EE
:10025000E2F7842B8C9381E08B8301C01B828B811E
:100260000F900F900F900F900F90CF91DF91089506
:10027000DF93CF9300D000D0CDB7DEB78A837C83E5
:100280006B838A81843090F48A81882F90E0880F74
:10029000991FFC01ED56FF4F0190F081E02D808108
:1002A000EB81FC81808381E0898301C0198289818F
:1002B0000F900F900F900F90CF91DF910895DF93E3
:1002C000CF9300D000D0CDB7DEB78A837C836B8319
:1002D0008A81843088F48A81882F90E0880F991F62
:1002E000FC01ED57FF4FA081B181EB81FC81808142
:1002F0008C9381E0898301C0198289810F900F90CE
:100300000F900F90CF91DF910895DF93CF9300D09E
:1003100000D00F92CDB7DEB78C836D838C81803295
:10032000D8F58C818695869586958A838C81877091
:1003300089838A81882F90E0880F991FFC01E557F7
:10034000FF4FA081B1818A81882F90E0880F991F8B
:10035000FC01E557FF4F0190F081E02D8081482F8F
:100360008981282F30E081E090E002C0880F991F3A
:100370002A95E2F7809548238D81282F30E08981E6
:10038000882F90E0B90102C0660F771F8A95E2F7C7
:10039000CB01842B8C9301C01B828B810F900F901B
:1003A0000F900F900F90CF91DF910895DF93CF932F
:1003B00000D00F92CDB7DEB78A836B838A818430F9
:1003C00070F48A81882F90E0880F991FFC01E5570F
:1003D000FF4F0190F081E02D8B81808301C0198255
:1003E00089810F900F900F90CF91DF910895DF9347
:1003F000CF9300D000D000D0CDB7DEB78C837E8302
:100400006D838C81803288F58C8186958695869562
:100410008A838C81877089838A81882F90E0880FF6
:10042000991FFC01E557FF4F0190F081E02D80817D
:10043000482F50E08A81282F30E081E090E002C010
:10044000880F991F2A95E2F79A01282339238A8178
:10045000882F90E0A90102C0559547958A95E2F74B
:10046000CA01ED81FE81808301C01B828B812696AB
:100470000FB6F894DEBF0FBECDBFCF91DF910895C8
:10048000DF93CF9300D000D0CDB7DEB78A837C83D3
:100490006B838A81843090F48A81882F90E0880F62
:1004A000991FFC01E557FF4F0190F081E02D8081FD
:1004B000EB81FC81808381E0898301C0198289817D
:1004C0000F900F900F900F90CF91DF910895DF93D1
:1004D000CF93CDB7DEB764970FB6F894DEBF0FBEEB
:1004E000CDBF0E9449000E94F90480E690E00E947E
:1004F0008C0584E294EFA0E0B0E0898B9A8BAB8B03
:10050000BC8B0CC0000089899A89AB89BC89019792
:10051000A109B109898B9A8BAB8BBC8B89899A898C
:10052000AB89BC890097A105B10561F70E9415064A
:1005300087E690E00E948C0584E294EFA0E0B0E0B2
:100540008D879E87AF87B88B0CC000008D859E85F8
:10055000AF85B8890197A109B1098D879E87AF87BB
:10056000B88B8D859E85AF85B8890097A105B105AB
:1005700061F70E9415068CE690E00E948C0584E2EB
:1005800094EFA0E0B0E089879A87AB87BC870CC066
:10059000000089859A85AB85BC850197A109B109C1
:1005A00089879A87AB87BC8789859A85AB85BC8507
:1005B0000097A105B10561F70E94150685E790E057
:1005C0000E948C0584E294EFA0E0B0E08D839E83CE
:1005D000AF83B8870CC000008D819E81AF81B88544
:1005E0000197A109B1098D839E83AF83B8878D815F
:1005F0009E81AF81B8850097A105B10561F70E9482
:1006000015068DE790E00E948C0584E294EFA0E04F
:10061000B0E089839A83AB83BC830CC000008981DE
:100620009A81AB81BC810197A109B10989839A8321
:10063000AB83BC8389819A81AB81BC810097A10582
:10064000B10561F70E94150650CFDF93CF930F924B
:10065000CDB7DEB789830E940E0488E160E00E9476
:10066000C9008981982F917080E0692F0E94C9008C
:100670008981982F927081E0692F0E94C900898139
:10068000982F947082E0692F0E94C9008981982F69
:10069000987083E0692F0E94C9008981982F90711A
:1006A00084E0692F0E94C9008981982F907285E0AB
:1006B000692F0E94C9008981982F907486E0692F64
:1006C0000E94C9008981982F907887E0692F0E9445
:1006D000C9000E946F030F90CF91DF910895DF93BF
:1006E000CF93CDB7DEB728970FB6F894DEBF0FBE15
:1006F000CDBF8AE161E00E94C9008DE790E0A0E0F3
:10070000B0E08D839E83AF83B8870CC000008D81DD
:100710009E81AF81B8850197A109B1098D839E8320
:10072000AF83B8878D819E81AF81B8850097A10581
:10073000B10561F78AE160E00E94C9008DE790E0B1
:10074000A0E0B0E089839A83AB83BC830CC0000037
:1007500089819A81AB81BC810197A109B109898303
:100760009A83AB83BC8389819A81AB81BC810097DA
:10077000A105B10561F728960FB6F894DEBF0FBE4C
:10078000CDBFCF91DF910895DF93CF930F92CDB777
:10079000DEB789830E940E0488E161E00E94C900EF
:1007A0008981982F917080E0692F0E94C90089810A
:1007B000982F927081E0692F0E94C9008981982F3B
:1007C000947082E0692F0E94C9008981982F9870E7
:1007D00083E0692F0E94C9008981982F907184E07D
:1007E000692F0E94C9008981982F907285E0692F36
:1007F0000E94C9008981982F907486E0692F0E9419
:10080000C9008981982F907887E0692F0E94C900DC
:100810000E946F030F90CF91DF910895DF93CF93E4
:10082000CDB7DEB761970FB6F894DEBF0FBECDBF70
:1008300080E060E00E94850181E060E00E94850127
:1008400082E060E00E94850183E060E00E94850113
:1008500084E060E00E94850185E060E00E948501FF
:1008600086E060E00E94850187E060E00E948501EB
:1008700089E161E00E94C90088E160E00E94C9004E
:10088000198A8AE161E00E94C9008DE790E0A0E04A
:10089000B0E08D879E87AF87B88B0CC000008D8538
:1008A0009E85AF85B8890197A109B1098D879E877B
:1008B000AF87B88B8D859E85AF85B8890097A105D8
:1008C000B10561F79E012F5E3F4F87E0B9010E949D
:1008D0007E008DE790E0A0E0B0E089879A87AB8743
:1008E000BC870CC0000089859A85AB85BC850197C3
:1008F000A109B10989879A87AB87BC8789859A85C1
:10090000AB85BC850097A105B10561F78AE160E080
:100910000E94C9008DE790E0A0E0B0E08D839E8347
:10092000AF83B8870CC000008D819E81AF81B885F0
:100930000197A109B1098D839E83AF83B8878D810B
:100940009E81AF81B8850097A105B10561F78AE165
:1009500061E00E94C9008DE790E0A0E0B0E08983EB
:100960009A83AB83BC830CC0000089819A81AB81E0
:10097000BC810197A109B10989839A83AB83BC83A8
:1009800089819A81AB81BC810097A105B10561F78E
:100990008989813009F474CF89E160E00E94C9003F
:1009A00080E061E00E94850181E061E00E948501B4
:1009B00082E061E00E94850183E061E00E948501A0
:1009C00084E061E00E94850185E061E00E9485018C
:1009D00086E061E00E94850187E061E00E94850178
:1009E00061960FB6F894DEBF0FBECDBFCF91DF91F9
:1009F0000895DF93CF93CDB7DEB760970FB6F89425
:100A0000DEBF0FBECDBF88E30E94250384EC99E0D2
:100A1000A0E0B0E08D879E87AF87B88B0CC0000048
:100A20008D859E85AF85B8890197A109B1098D870C
:100A30009E87AF87B88B8D859E85AF85B8890097D7
:100A4000A105B10561F781E00E9425038DE790E0E3
:100A5000A0E0B0E089879A87AB87BC870CC0000014
:100A600089859A85AB85BC850197A109B1098987DC
:100A70009A87AB87BC8789859A85AB85BC850097AB
:100A8000A105B10561F78CE00E9425038DE790E098
:100A9000A0E0B0E08D839E83AF83B8870CC00000D8
:100AA0008D819E81AF81B8850197A109B1098D83A0
:100AB0009E83AF83B8878D819E81AF81B885009773
:100AC000A105B10561F780E80E9425038DE790E05C
:100AD000A0E0B0E089839A83AB83BC830CC00000A4
:100AE00089819A81AB81BC810197A109B109898370
:100AF0009A83AB83BC8389819A81AB81BC81009747
:100B0000A105B10561F760960FB6F894DEBF0FBE80
:100B1000CDBFCF91DF910895DF93CF9300D0CDB7B4
:100B2000DEB79A8389830BC0E981FA8120818981AC
:100B30009A8101969A838983822F0E94C403E98156
:100B4000FA818081882381F70F900F90CF91DF91F8
:100B50000895DF93CF930F92CDB7DEB78983898154
:100B6000813019F480E80E9425038981823019F4CC
:100B700080EC0E9425030F90CF91DF910895DF93C1
:100B8000CF9300D00F92CDB7DEB789837B836A8382
:100B900089810E94A9050BC0EA81FB8120818A819D
:100BA0009B8101969B838A83822F0E94C403EA81E2
:100BB000FB818081882381F70F900F900F90CF9158
:100BC000DF910895DF93CF9300D0CDB7DEB789834F
:100BD0006A838A81813021F4898180580E942503AB
:100BE0008A81823021F4898180540E9425030F90EC
:100BF0000F90CF91DF910895DF93CF9300D000D075
:100C0000CDB7DEB79A8389836B834C838B816C81EC
:100C10000E94E20589819A810E948C050F900F90B5
:100C20000F900F90CF91DF910895DF93CF93CDB7C1
:100C3000DEB781E00E942503CF91DF910895DF9315
:100C4000CF9300D00F92CDB7DEB79B838A831982F2
:100C50008A819B818336910590F58981E82FF0E0A8
:100C60008A819B812AE030E0B9010E942307CB01F1
:100C70009C01205D3F4FCF01880F991FFC01E45676
:100C8000FF4F3183208389818F5F89838981E82F9A
:100C9000F0E08A819B812AE030E0B9010E942307BD
:100CA0009C01205D3F4FCF01880F991FFC01E45646
:100CB000FF4F3183208389818F5F8983B2C08A810E
:100CC0009B8123E0873E920708F050C08981E82F7E
:100CD000F0E08A819B8124E630E0B9010E9423077D
:100CE000CB019C01205D3F4FCF01880F991FFC0174
:100CF000E456FF4F3183208389818F5F8983898107
:100D0000E82FF0E08A819B812AE030E0B9010E945F
:100D10002307CB012AE030E0B9010E9423079C01A0
:100D2000205D3F4FCF01880F991FFC01E456FF4F14
:100D30003183208389818F5F89838981E82FF0E067
:100D40008A819B812AE030E0B9010E9423079C013F
:100D5000205D3F4FCF01880F991FFC01E456FF4FE4
:100D60003183208389818F5F89835BC08A819B81E6
:100D700024E08030920708F054C08981882F90E0E9
:100D8000880F991FFC01E456FF4F81E390E09183A7
:100D9000808389818F5F89838981882F90E0880F84
:100DA000991FFC01E456FF4F80E390E0918380831C
:100DB00089818F5F89838981E82FF0E08A819B8117
:100DC0002AE030E0B9010E942307CB012AE030E09D
:100DD000B9010E9423079C01205D3F4FCF01880F7E
:100DE000991FFC01E456FF4F3183208389818F5F77
:100DF00089838981E82FF0E08A819B812AE030E0B5
:100E0000B9010E9423079C01205D3F4FCF01880F4D
:100E1000991FFC01E456FF4F3183208389818F5F46
:100E200089838981882F90E0880F991FFC01E456FF
:100E3000FF4F118210828CE990E00F900F900F907D
:100E4000CF91DF910895AA1BBB1B51E107C0AA1FD8
:100E5000BB1FA617B70710F0A61BB70B881F991F5B
:100E60005A95A9F780959095BC01CD010895F89405
:020E7000FFCFB2
:100E72004E6164696E65004164656C004D656E7318
:100E82006861777900796F7573736566004D617279
:100E9200696D003B003800350032003A00370034FB
:0C0EA20000310039003600330030000041
:00000001FF
