:100000000C942A000C9447000C9447000C94470071
:100010000C9447000C9447000C9447000C94470044
:100020000C9447000C9447000C9447000C94470034
:100030000C9447000C9447000C9447000C94470024
:100040000C9447000C9447000C9447000C94470014
:100050000C94470011241FBECFE5D8E0DEBFCDBF12
:1000600010E0A0E6B0E0E0EFFCE002C005900D92E9
:10007000A837B107D9F710E0A8E7B0E001C01D929A
:10008000A238B107E1F70E945B060C9476060C9447
:100090000000DF93CF93CDB7DEB7EAE3F0E0108244
:1000A000E7E3F0E080EA8083E4E3F0E01082E1E35C
:1000B000F0E01082ABE3B0E0EBE3F0E080818C9302
:1000C000A8E3B0E0E8E3F0E080818F758C93A5E3CE
:1000D000B0E0E5E3F0E080818C93A2E3B0E0E2E3FE
:1000E000F0E080818C93CF91DF910895DF93CF93DF
:1000F00000D000D000D0CDB7DEB78C837E836D8377
:100100008C81803298F58C818695869586958A8338
:100110008C81877089838A81882F90E0880F991F4E
:10012000FC01E059FF4F0190F081E02D8081482FC4
:1001300050E08981282F30E081E090E002C0880FF4
:10014000991F2A95E2F79A01282339238981882F5C
:1001500090E0A90102C0559547958A95E2F7CA013A
:10016000ED81FE81808381E08B8301C01B828B81C6
:1001700026960FB6F894DEBF0FBECDBFCF91DF91AC
:100180000895DF93CF9300D000D00F92CDB7DEB7A4
:100190008C836D838C81803208F058C08C81869569
:1001A000869586958A838C81877089838D81882343
:1001B00031F58A81882F90E0880F991FFC01E05A61
:1001C000FF4FA081B1818A81882F90E0880F991F0D
:1001D000FC01E05AFF4F0190F081E02D8081482F13
:1001E0008981282F30E081E090E0022E02C0880F44
:1001F000991F0A94E2F7809584238C9324C08A8106
:10020000882F90E0880F991FFC01E05AFF4FA081D2
:10021000B1818A81882F90E0880F991FFC01E05AF4
:10022000FF4F0190F081E02D8081482F8981282F98
:1002300030E081E090E0022E02C0880F991F0A94FE
:10024000E2F7842B8C9381E08B8301C01B828B812E
:100250000F900F900F900F900F90CF91DF91089516
:10026000DF93CF9300D000D0CDB7DEB78A837C83F5
:100270006B838A81843090F48A81882F90E0880F84
:10028000991FFC01E059FF4F0190F081E02D808122
:10029000EB81FC81808381E0898301C0198289819F
:1002A0000F900F900F900F90CF91DF910895DF93F3
:1002B000CF9300D000D0CDB7DEB78A837C836B8329
:1002C0008A81843088F48A81882F90E0880F991F72
:1002D000FC01E05AFF4FA081B181EB81FC8180815C
:1002E0008C9381E0898301C0198289810F900F90DE
:1002F0000F900F90CF91DF910895DF93CF9300D0AF
:1003000000D00F92CDB7DEB78C836D838C818032A5
:10031000D8F58C818695869586958A838C818770A1
:1003200089838A81882F90E0880F991FFC01E85902
:10033000FF4FA081B1818A81882F90E0880F991F9B
:10034000FC01E859FF4F0190F081E02D8081482F9A
:100350008981282F30E081E090E002C0880F991F4A
:100360002A95E2F7809548238D81282F30E08981F6
:10037000882F90E0B90102C0660F771F8A95E2F7D7
:10038000CB01842B8C9301C01B828B810F900F902B
:100390000F900F900F90CF91DF910895DF93CF933F
:1003A00000D00F92CDB7DEB78A836B838A81843009
:1003B00070F48A81882F90E0880F991FFC01E8591A
:1003C000FF4F0190F081E02D8B81808301C0198265
:1003D00089810F900F900F90CF91DF910895DF9357
:1003E000CF9300D000D000D0CDB7DEB78C837E8312
:1003F0006D838C81803288F58C8186958695869573
:100400008A838C81877089838A81882F90E0880F06
:10041000991FFC01E859FF4F0190F081E02D808188
:10042000482F50E08A81282F30E081E090E002C020
:10043000880F991F2A95E2F79A01282339238A8188
:10044000882F90E0A90102C0559547958A95E2F75B
:10045000CA01ED81FE81808301C01B828B812696BB
:100460000FB6F894DEBF0FBECDBFCF91DF910895D8
:10047000DF93CF9300D000D0CDB7DEB78A837C83E3
:100480006B838A81843090F48A81882F90E0880F72
:10049000991FFC01E859FF4F0190F081E02D808108
:1004A000EB81FC81808381E0898301C0198289818D
:1004B0000F900F900F900F90CF91DF910895DF93E1
:1004C000CF930F92CDB7DEB789830E94480388E1AE
:1004D00060E00E94C1008981982F917080E0692FAF
:1004E0000E94C1008981982F927081E0692F0E943B
:1004F000C1008981982F947082E0692F0E94C10009
:100500008981982F987083E0692F0E94C1008981AA
:10051000982F907184E0692F0E94C1008981982FE3
:10052000907285E0692F0E94C1008981982F907494
:1005300086E0692F0E94C1008981982F907887E01A
:10054000692F0E94C1000E94A9020F90CF91DF91F4
:100550000895DF93CF93CDB7DEB728970FB6F89401
:10056000DEBF0FBECDBF8AE161E00E94C10084EF13
:1005700091E0A0E0B0E08D839E83AF83B8870CC08C
:1005800000008D819E81AF81B8850197A109B109D5
:100590008D839E83AF83B8878D819E81AF81B8851F
:1005A0000097A105B10561F78AE160E00E94C100F2
:1005B00084EF91E0A0E0B0E089839A83AB83BC83B1
:1005C0000CC0000089819A81AB81BC810197A1098F
:1005D000B10989839A83AB83BC8389819A81AB817A
:1005E000BC810097A105B10561F728960FB6F89474
:1005F000DEBF0FBECDBFCF91DF910895DF93CF93C4
:100600000F92CDB7DEB789830E94480388E161E08D
:100610000E94C1008981982F917080E0692F0E940B
:10062000C1008981982F927081E0692F0E94C100DA
:100630008981982F947082E0692F0E94C10089817E
:10064000982F987083E0692F0E94C1008981982FAC
:10065000907184E0692F0E94C1008981982F907267
:1006600085E0692F0E94C1008981982F907486E0EF
:10067000692F0E94C1008981982F907887E0692FA7
:100680000E94C1000E94A9020F90CF91DF910895AE
:10069000DF93CF93CDB7DEB761970FB6F894DEBF87
:1006A0000FBECDBF80E060E00E947D0181E060E090
:1006B0000E947D0182E060E00E947D0183E060E0B5
:1006C0000E947D0184E060E00E947D0185E060E0A1
:1006D0000E947D0186E060E00E947D0187E060E08D
:1006E0000E947D0189E161E00E94C10088E160E033
:1006F0000E94C100198A8AE161E00E94C10084EF72
:1007000091E0A0E0B0E08D879E87AF87B88B0CC0EA
:1007100000008D859E85AF85B8890197A109B10933
:100720008D879E87AF87B88B8D859E85AF85B8896D
:100730000097A105B10561F79E012F5E3F4F87E04D
:10074000B9010E94760084EF91E0A0E0B0E08987D3
:100750009A87AB87BC870CC0000089859A85AB85DA
:10076000BC850197A109B10989879A87AB87BC87A6
:1007700089859A85AB85BC850097A105B10561F790
:100780008AE160E00E94C10084EF91E0A0E0B0E067
:100790008D839E83AF83B8870CC000008D819E81BE
:1007A000AF81B8850197A109B1098D839E83AF837D
:1007B000B8878D819E81AF81B8850097A105B1056D
:1007C00061F78AE161E00E94C10084EF91E0A0E05E
:1007D000B0E089839A83AB83BC830CC0000089811D
:1007E0009A81AB81BC810197A109B10989839A8360
:1007F000AB83BC8389819A81AB81BC810097A105C1
:10080000B10561F78989813009F474CF89E160E02D
:100810000E94C10080E061E00E947D0181E061E012
:100820000E947D0182E061E00E947D0183E061E041
:100830000E947D0184E061E00E947D0185E061E02D
:100840000E947D0186E061E00E947D0187E061E019
:100850000E947D0161960FB6F894DEBF0FBECDBF3A
:10086000CF91DF910895DF93CF93CDB7DEB7609737
:100870000FB6F894DEBF0FBECDBF88E30E945F02C3
:1008800080E197E2A0E0B0E08D879E87AF87B88BCC
:100890000CC000008D859E85AF85B8890197A109A0
:1008A000B1098D879E87AF87B88B8D859E85AF8573
:1008B000B8890097A105B10561F781E00E945F0248
:1008C00084EF91E0A0E0B0E089879A87AB87BC878E
:1008D0000CC0000089859A85AB85BC850197A1096C
:1008E000B10989879A87AB87BC8789859A85AB854B
:1008F000BC850097A105B10561F78CE00E945F02FD
:1009000084EF91E0A0E0B0E08D839E83AF83B88751
:100910000CC000008D819E81AF81B8850197A1092F
:10092000B1098D839E83AF83B8878D819E81AF810E
:10093000B8850097A105B10561F780E80E945F02C4
:1009400084EF91E0A0E0B0E089839A83AB83BC831D
:100950000CC0000089819A81AB81BC810197A109FB
:10096000B10989839A83AB83BC8389819A81AB81E6
:10097000BC810097A105B10561F760960FB6F894A8
:10098000DEBF0FBECDBFCF91DF910895DF93CF9330
:1009900000D0CDB7DEB79A8389830BC0E981FA8195
:1009A000208189819A8101969A838983822F0E946E
:1009B000FE02E981FA818081882381F70F900F90F0
:1009C000CF91DF910895DF93CF930F92CDB7DEB72C
:1009D00089838981813019F480E80E945F028981CE
:1009E000823019F480EC0E945F020F90CF91DF916A
:1009F0000895DF93CF9300D00F92CDB7DEB78983F0
:100A00007B836A8389810E94E3040BC0EA81FB81B6
:100A100020818A819B8101969B838A83822F0E94F9
:100A2000FE02EA81FB818081882381F70F900F907D
:100A30000F90CF91DF910895DF93CF9300D0CDB782
:100A4000DEB789836A838A81813029F4898180585D
:100A50000E945F0204C0898180540E945F020F904F
:100A60000F90CF91DF910895DF93CF9300D000D006
:100A7000CDB7DEB79A8389836B834C838B816C817E
:100A80000E941C0589819A810E94C6040F900F90D4
:100A90000F900F90CF91DF910895DF93CF93CDB753
:100AA000DEB781E00E945F02CF91DF910895DF936E
:100AB000CF9300D00F92CDB7DEB79B838A83198284
:100AC0008A819B818336910590F58981E82FF0E03A
:100AD0008A819B812AE030E0B9010E946206CB0145
:100AE0009C01205D3F4FCF01880F991FFC01E85802
:100AF000FF4F3183208389818F5F89838981E82F2C
:100B0000F0E08A819B812AE030E0B9010E94620610
:100B10009C01205D3F4FCF01880F991FFC01E858D1
:100B2000FF4F3183208389818F5F8983B2C08A819F
:100B30009B8123E0873E920708F050C08981E82F0F
:100B4000F0E08A819B8124E630E0B9010E946206D0
:100B5000CB019C01205D3F4FCF01880F991FFC0105
:100B6000E858FF4F3183208389818F5F8983898192
:100B7000E82FF0E08A819B812AE030E0B9010E94F1
:100B80006206CB012AE030E0B9010E9462069C01B6
:100B9000205D3F4FCF01880F991FFC01E858FF4FA0
:100BA0003183208389818F5F89838981E82FF0E0F9
:100BB0008A819B812AE030E0B9010E9462069C0193
:100BC000205D3F4FCF01880F991FFC01E858FF4F70
:100BD0003183208389818F5F89835BC08A819B8178
:100BE00024E08030920708F054C08981882F90E07B
:100BF000880F991FFC01E858FF4F81E390E0918333
:100C0000808389818F5F89838981882F90E0880F15
:100C1000991FFC01E858FF4F80E390E091838083A7
:100C200089818F5F89838981E82FF0E08A819B81A8
:100C30002AE030E0B9010E946206CB012AE030E0F0
:100C4000B9010E9462069C01205D3F4FCF01880FD1
:100C5000991FFC01E858FF4F3183208389818F5F02
:100C600089838981E82FF0E08A819B812AE030E046
:100C7000B9010E9462069C01205D3F4FCF01880FA1
:100C8000991FFC01E858FF4F3183208389818F5FD2
:100C900089838981882F90E0880F991FFC01E8588B
:100CA000FF4F1182108288E790E00F900F900F9015
:100CB000CF91DF910895DF93CF93CDB7DEB7CF917A
:100CC000DF910895AA1BBB1B51E107C0AA1FBB1FE0
:100CD000A617B70710F0A61BB70B881F991F5A95C8
:100CE000A9F780959095BC01CD010895F894FFCFA8
:100CF0003B003800350032003A0037003400310044
:080D0000390036003300300019
:00000001FF
