:100000000C942A000C9447000C9447000C94470071
:100010000C9447000C9447000C9447000C94470044
:100020000C9447000C9447000C9447000C94470034
:100030000C9447000C9492010C94BF010C94EC01B9
:100040000C9447000C9447000C9447000C94470014
:100050000C94470011241FBECFE5D8E0DEBFCDBF12
:1000600010E0A0E6B0E0E6E3F4E002C005900D92F7
:10007000A437B107D9F710E0A4E7B0E001C01D92A2
:10008000AA37B107E1F70E946A000C9419020C9498
:100090000000DF93CF93CDB7DEB7809160008095ED
:1000A00080936000EBE3F0E0809160008083CF916B
:1000B000DF910895DF93CF930F92CDB7DEB7CE01D6
:1000C00001960E944A0189810E943C010F90CF91C4
:1000D000DF910895DF93CF9300D000D0CDB7DEB786
:1000E000EAE3F0E08FEF80838AE590E00E946E0102
:1000F00089E490E00E945C010E949D00789419823E
:100100001A821B821C820CC0000089819A81AB81FB
:10011000BC810196A11DB11D89839A83AB83BC83E9
:1001200089819A81AB81BC8180332EE4920720E0E3
:10013000A20720E0B20740F3E2CFDF93CF9300D0D5
:1001400000D0CDB7DEB780916300909164009C83AE
:100150008B838B818A838B819C81892F99278983CB
:10016000A0E4B0E0E0E4F0E080818F778C93E0E4FD
:10017000F0E08081881F8827881F882F90E090708A
:10018000009771F7E0E4F0E089818083E9E2F0E034
:100190008A818F778083EBE2F0E01082EAE2F0E080
:1001A00088ED8083A0E4B0E0E0E4F0E08081806846
:1001B0008C93E0E4F0E08081881F8827881F882FD7
:1001C00090E09070009771F3E0E4F0E086E88083BF
:1001D0000F900F900F900F90CF91DF910895DF93C4
:1001E000CF930F92CDB7DEB78983EBE2F0E0808149
:1001F000882F90E0807290700097B9F3ECE2F0E005
:10020000898180830F90CF91DF910895DF93CF9301
:1002100000D0CDB7DEB79A838983EBE2F0E080812E
:100220008823DCF7ECE2F0E08081E981FA818083C9
:100230000F900F90CF91DF910895DF93CF930F929E
:10024000CDB7DEB704C0ECE2F0E080818983EBE259
:10025000F0E080818823BCF30F90CF91DF91089567
:10026000DF93CF9300D0CDB7DEB79A8389830F9009
:100270000F90CF91DF910895DF93CF930F92CDB779
:10028000DEB78983ECE2F0E0898180830F90CF9123
:10029000DF910895DF93CF9300D0CDB7DEB79A8377
:1002A0008983ECE2F0E08081E981FA8180830F901C
:1002B0000F90CF91DF910895DF93CF9300D0CDB70A
:1002C000DEB79A83898389819A81909375008093A0
:1002D00074000F900F90CF91DF910895DF93CF932B
:1002E00000D0CDB7DEB79A83898389819A819093B4
:1002F0007700809376000F900F90CF91DF91089553
:10030000DF93CF9300D0CDB7DEB79A8389838981FD
:100310009A8190937900809378000F900F90CF91FD
:10032000DF9108951F920F920FB60F9211242F9311
:100330003F934F935F936F937F938F939F93AF936D
:10034000BF93EF93FF93DF93CF93CDB7DEB7E091E9
:100350007600F09177000995CF91DF91FF91EF91B1
:10036000BF91AF919F918F917F916F915F914F91CD
:100370003F912F910F900FBE0F901F9018951F92D5
:100380000F920FB60F9211242F933F934F935F93C9
:100390006F937F938F939F93AF93BF93EF93FF934D
:1003A000DF93CF93CDB7DEB7E0917800F09179007D
:1003B0000995CF91DF91FF91EF91BF91AF919F91FF
:1003C0008F917F916F915F914F913F912F910F90FE
:1003D0000FBE0F901F9018951F920F920FB60F929D
:1003E00011242F933F934F935F936F937F938F933A
:1003F0009F93AF93BF93EF93FF93DF93CF93CDB7CB
:10040000DEB7E0917400F09175000995CF91DF910E
:10041000FF91EF91BF91AF919F918F917F916F91DC
:100420005F914F913F912F910F900FBE0F901F90B2
:060430001895F894FFCFBF
:10043600FF670019000100CF00330003001F0147CA
:0404460000050000AD
:00000001FF
