:100000000C942A000C9447000C9447000C94470071
:100010000C9447000C9447000C9447000C94470044
:100020000C9447000C9447000C9447000C94470034
:100030000C9447000C946E010C949B010C94C80125
:100040000C9447000C9447000C9447000C94470014
:100050000C94470011241FBECFE5D8E0DEBFCDBF12
:1000600010E0A0E6B0E0EEEEF3E002C005900D92E5
:10007000A237B107D9F710E0A2E7B0E001C01D92A6
:10008000A837B107E1F70E9449000C94F5010C94E0
:100090000000DF93CF9300D000D00F92CDB7DEB732
:1000A00085E58D830E9479008D810E94CB00CE0171
:1000B00005960E94E20019821A821B821C820CC0E3
:1000C000000089819A81AB81BC810196A11DB11D7F
:1000D00089839A83AB83BC8389819A81AB81BC81FC
:1000E00080332EE4920720E0A20720E0B20740F31D
:1000F000DBCFDF93CF9300D000D0CDB7DEB78091B8
:100100006200909163009C838B838B818A838B81B7
:100110009C81892F99278983A0E4B0E0E0E4F0E096
:1001200080818F778C93E0E4F0E08081881F8827BE
:10013000881F882F90E09070009771F7E0E4F0E05E
:1001400089818083E9E2F0E08A818F778083EBE226
:10015000F0E01082EAE2F0E088E18083A0E4B0E021
:10016000E0E4F0E0808180688C93E0E4F0E080815E
:10017000881F8827881F882F90E09070009771F360
:10018000E0E4F0E086E880830F900F900F900F90EE
:10019000CF91DF910895DF93CF930F92CDB7DEB764
:1001A0008983EBE2F0E08081882F90E0807290708C
:1001B0000097B9F3ECE2F0E0898180830F90CF9152
:1001C000DF910895DF93CF9300D0CDB7DEB79A8348
:1001D0008983EBE2F0E080818823DCF7ECE2F0E059
:1001E0008081E981FA8180830F900F90CF91DF9118
:1001F0000895DF93CF930F92CDB7DEB704C0ECE242
:10020000F0E080818983EBE2F0E080818823BCF319
:100210000F90CF91DF910895DF93CF9300D0CDB7AA
:10022000DEB79A8389830F900F90CF91DF91089565
:10023000DF93CF930F92CDB7DEB78983ECE2F0E086
:10024000898180830F90CF91DF910895DF93CF93C1
:1002500000D0CDB7DEB79A838983ECE2F0E08081ED
:10026000E981FA8180830F900F90CF91DF910895FB
:10027000DF93CF9300D0CDB7DEB79A83898389818E
:100280009A8190937300809372000F900F90CF919A
:10029000DF910895DF93CF9300D0CDB7DEB79A8377
:1002A000898389819A8190937500809374000F905F
:1002B0000F90CF91DF910895DF93CF9300D0CDB70A
:1002C000DEB79A83898389819A819093770080939E
:1002D00076000F900F90CF91DF9108951F920F92AB
:1002E0000FB60F9211242F933F934F935F936F9309
:1002F0007F938F939F93AF93BF93EF93FF93DF937E
:10030000CF93CDB7DEB7E0917400F09175000995F9
:10031000CF91DF91FF91EF91BF91AF919F918F911D
:100320007F916F915F914F913F912F910F900FBEF1
:100330000F901F9018951F920F920FB60F921124D5
:100340002F933F934F935F936F937F938F939F93DD
:10035000AF93BF93EF93FF93DF93CF93CDB7DEB708
:10036000E0917600F09177000995CF91DF91FF91B0
:10037000EF91BF91AF919F918F917F916F915F911D
:100380004F913F912F910F900FBE0F901F90189596
:100390001F920F920FB60F9211242F933F934F93FA
:1003A0005F936F937F938F939F93AF93BF93EF93DD
:1003B000FF93DF93CF93CDB7DEB7E0917200F0915A
:1003C00073000995CF91DF91FF91EF91BF91AF91AC
:1003D0009F918F917F916F915F914F913F912F915D
:0E03E0000F900FBE0F901F901895F894FFCF4E
:1003EE00670019000100CF00330003001F01470012
:0203FE000500F8
:00000001FF
